:040000000BEF00F012
:100008005182FACF01F0FBCF02F014ED10F0BFEFF0
:0200180015F0E1
:100800000000803F72313FFE753E58633D951D3CB0
:10081000C5AE3A79213994803793A73556153400FF
:10082000000000803FF0FFBEE2A93E8376BEAE2B03
:100830003E3CC3BDD2133D78D3BB47454E455241E4
:10084000444F522044452020202000332E53454E53
:100850004F342E52455345543A2020002D2D2D2D36
:1008600053454E49414C45532D2D2D2D00312E52CF
:10087000414D504120322E43554144524100494E92
:100880004752455345204C4120202020200053450D
:100890004E49414C20435541445241444100424F4E
:1008A000525241444F20455849544F534F005345ED
:1008B0004E49414C2052414D504100465245432E35
:1008C0003A20202020487A00465245432E3D2020E1
:1008D0002020487A0053454E49414C2053454E4F05
:1008E0000000060EC16ED388D38AD38C000E926EA0
:1008F000000E946EF00E936E000E956E000E966EC6
:10090000F00E816E000E826E000E806E000E846E00
:10091000F19EF286F290F28CF28E30EC16F01A0E06
:100920000001DE6FF80EE82EFED7DE2FFCD700D0D8
:100930000DEC17F0000E136E010E126E000E156E08
:10094000010E146E4CEC16F03A0E126E080E136E79
:1009500084EC16F0000E136E010E126E000E156E72
:10096000020E146E4CEC16F05C0E126E080E136E36
:1009700084EC16F0000EA96EA680A8CF49F04A6A52
:100980000F0E4F185010D8A4FBD749284A10D8B4DE
:1009900007D0040EA96EA680A8CF4DF04E6A6CD089
:1009A0000DEC17F0000E136E010E126E000E156E98
:1009B000010E146E4CEC16F06D0E126E080E136ED6
:1009C00084EC16F0000E136E010E126E000E156E02
:1009D000020E146E4CEC16F04B0E126E080E136ED7
:1009E00084EC16F0000E506E4F68000E136E0F0E62
:1009F000126E000E156E020E146E4CEC16F04F04C3
:100A00005010D8B40FD0020E4F185010D8B40AD0DE
:100A1000030E4F185010D8B405D0040E4F185010C4
:100A2000D8A4EDD74FC049F050C04AF0A6B2FED7C7
:100A3000000EA96E49C0A8FFD890F2BED880F29EE1
:100A4000A684550EA76EAA0EA76EA682A694D8B04D
:100A5000F28E4F50300FE1EC16F00A0E4F18501086
:100A6000D8B405D00F0E4F185010D8A4F6D70A0EE0
:100A70004F185010D8B4B6D749044A10D8A461D042
:100A80004D284E10D8B46CEC0DF00DEC17F0000EA4
:100A9000136E010E126E000E156E010E146E4CECEC
:100AA00016F0AE0E126E080E136E84EC16F0000EE9
:100AB000136E010E126E000E156E020E146E4CECCB
:100AC00016F0C80E126E080E136E84EC16F0000EAF
:100AD000136E070E126E000E156E020E146E4CECA5
:100AE00016F0010EA96EA680A8CF43F0446A4350C9
:100AF000300FE1EC16F0020EA96EA680A8CF45F0EB
:100B0000466A4550300FE1EC16F0030EA96EA68040
:100B1000A8CF4BF04C6A4B50300FE1EC16F0040EAE
:100B2000A96EA680A8CF4DF04E6A4DC0CAF04EC047
:100B3000CBF0D4EC0AF00B0E4F185010D8B4A3D75A
:100B40002FD7020E49184A10D8A461D04D284E1054
:100B5000D8B46CEC0DF00DEC17F0000E136E010E16
:100B6000126E000E156E010E146E4CEC16F08E0E09
:100B7000126E080E136E84EC16F0000E136E010E4A
:100B8000126E000E156E020E146E4CEC16F0C80EAE
:100B9000126E080E136E84EC16F0000E136E070E24
:100BA000126E000E156E020E146E4CEC16F0010E55
:100BB000A96EA680A8CF43F0446A4350300FE1EC01
:100BC00016F0020EA96EA680A8CF45F0466A4550E1
:100BD000300FE1EC16F0030EA96EA680A8CF4BF003
:100BE0004C6A4B50300FE1EC16F0040EA96EA68053
:100BF000A8CF4DF04E6A4DC0CAF04EC0CBF00BEC02
:100C000009F00B0E4F185010D8B4A3D7C9D6030E55
:100C100049184A10D8A461D04D284E10D8B46CECB5
:100C20000DF00DEC17F0000E136E010E126E000E9B
:100C3000156E010E146E4CEC16F0D50E126E080EE9
:100C4000136E84EC16F0000E136E010E126E000E81
:100C5000156E020E146E4CEC16F0C80E126E080ED5
:100C6000136E84EC16F0000E136E070E126E000E5B
:100C7000156E020E146E4CEC16F0010EA96EA680D5
:100C8000A8CF43F0446A4350300FE1EC16F0020E57
:100C9000A96EA680A8CF45F0466A4550300FE1EC1A
:100CA00016F0030EA96EA680A8CF4BF04C6A4B50ED
:100CB000300FE1EC16F0040EA96EA680A8CF4DF01F
:100CC0004E6A4DC0CAF04EC0CBF0EBEC06F00B0EF6
:100CD0004F185010D8B4A3D763D6040E49184A1041
:100CE000D8A40BEF00F0A6B2FED7000EA96EA8683C
:100CF000D890F2BED880F29EA684550EA76EAA0E9A
:100D0000A76EA682A694D8B0F28EA6B2FED7010E28
:100D1000A96EA868D890F2BED880F29EA684550E1F
:100D2000A76EAA0EA76EA682A694D8B0F28EA6B21F
:100D3000FED7020EA96EA868D890F2BED880F29EA7
:100D4000A684550EA76EAA0EA76EA682A694D8B04A
:100D5000F28EA6B2FED7030EA96EA868D890F2BE96
:100D6000D880F29EA684550EA76EAA0EA76EA68204
:100D7000A694D8B0F28EA6B2FED7040EA96EA868CB
:100D8000D890F2BED880F29EA684550EA76EAA0E09
:100D9000A76EA682A694D8B0F28E000E4E6E4D6855
:100DA0000DEC17F0000E136E010E126E000E156E94
:100DB000010E146E4CEC16F09E0E126E080E136EA1
:100DC00084EC16F0000E506E4F680F0E4F18501046
:100DD000D8B4E6D5FAD70001CBBFB7D00001CB51CC
:100DE00005E1280E0001CA5DD8A0AFD0000E0001B9
:100DF000DB6F000EDA6FCAC017F0CBC018F068ECDA
:100E000016F017C0CCF018C0CDF019C0CEF0850E8A
:100E10000001BC6FCB0E0001BD6FBF0E0001BE6FA5
:100E2000CCC0B9F0CDC0BAF0CEC0BBF043EC0FF0EF
:100E3000B9C0CFF0BAC0D0F0BBC0D1F0380E1E6E32
:100E4000460E1F6E460E206ECFC01BF0D0C01CF0A9
:100E5000D1C01DF05DEC12F01BC02AF01CC02BF0BD
:100E60001DC02CF0E3EC11F02AC0DAF02BC0DBF04F
:100E700062D0000E0001D36F000ED26F0001D3BF0D
:100E800008D00001D35157E1240E0001D25DD8B043
:100E900052D0D8900001D235D96E0001D335DA6E28
:100EA000600ED926000EDA22DF50896ED89000013C
:100EB000D235D96E0001D335DA6E600ED926000E18
:100EC000DA22DF508B6E0001DA5108EC17F00001D6
:100ED000DA5108EC17F00001DA5108EC17F00001C4
:100EE000DA5108EC17F00001DA5108EC17F00001B4
:100EF000DA5108EC17F00001DA5108EC17F00001A4
:100F0000DA5108EC17F00001DA5108EC17F0000193
:100F1000DA5108EC17F00001DA5108EC17F0000183
:100F2000DA5108EC17F00001DA5108EC17F0000173
:100F3000D24BD32BA3D70B0E4F185010D8B405D0DB
:100F40000C0E4F185010D8A494D70001CBBF08D076
:100F50000001CB5104E1280E0001CA5DD8B0A6D033
:100F60000001CBBFA3D00001CB5105E1030E00016E
:100F7000CA5DD8A09BD0000E0001D96F000ED86FBB
:100F8000CAC017F0CBC018F068EC16F017C0CCF050
:100F900018C0CDF019C0CEF0CF0E0001BC6F870E87
:100FA0000001BD6FBF0E0001BE6FCCC0B9F0CDC057
:100FB000BAF0CEC0BBF043EC0FF0B9C0CFF0BAC06E
:100FC000D0F0BBC0D1F0CF0E1E6E0E0E1F6E440EC1
:100FD000206ECFC01BF0D0C01CF0D1C01DF05DEC66
:100FE00012F01BC02AF01CC02BF01DC02CF0E3EC4B
:100FF00011F02AC0D8F02BC0D9F04ED0000E00015D
:10100000D56F000ED46F0001D5BF08D00001D551B7
:1010100043E1240E0001D45DD8B03ED0D890000149
:10102000D435D96E0001D535DA6E600ED926000EA2
:10103000DA22DF50896ED8900001D435D96E0001D4
:10104000D535DA6E600ED926000EDA22DF508B6EAF
:101050000001D851F8EC16F00001D851F8EC16F068
:101060000001D851F8EC16F00001D851F8EC16F058
:101070000001D851F8EC16F00001D851F8EC16F048
:101080000001D851F8EC16F00001D851F8EC16F038
:101090000001D44BD52BB7D70B0E4F185010D8B436
:1010A00005D00C0E4F185010D8A4A8D70001CBBF04
:1010B000A7D00001CB5105E1030E0001CA5DD8A005
:1010C0009FD01200000E0001D76F000ED66F0001F6
:1010D000D7BF0AD00001D75106E1240E0001D65D2A
:1010E000D8B08ED001D08CD0D8900001D635D96E32
:1010F0000001D735DA6E600ED926000EDA22DF50F5
:10110000896ED8900001D635D96E0001D735DA6ED8
:10111000600ED926000EDA22DF508B6E000E106EA4
:10112000440E0F6ECAC011F0CBC012F013EC15F0D4
:101130000F5000EC17F0000E106E440E0F6ECAC078
:1011400011F0CBC012F013EC15F00F5000EC17F0BB
:10115000000E106E440E0F6ECAC011F0CBC012F01C
:1011600013EC15F00F5000EC17F0000E106E440E4B
:101170000F6ECAC011F0CBC012F013EC15F00F5077
:1011800000EC17F0000E106E440E0F6ECAC011F086
:10119000CBC012F013EC15F00F5000EC17F0000E5E
:1011A000106E440E0F6ECAC011F0CBC012F013ECDB
:1011B00015F00F5000EC17F0000E106E440E0F6E7D
:1011C000CAC011F0CBC012F013EC15F00F5000ECB8
:1011D00017F0000E106E440E0F6ECAC011F0CBC097
:1011E00012F013EC15F00F5000EC17F00001D64B85
:1011F000D72B0001D7BF78D70001D75101E16DD7B8
:101200000B0E4F185010D8B412000C0E4F1850107F
:10121000D8B4120057D70001CBBF9BD00001CB51EF
:1012200005E1320E0001CA5DD8A093D0000E000186
:10123000D36F000ED26FCAC017F0CBC018F068ECA5
:1012400016F017C0CCF018C0CDF019C0CEF05A0E71
:101250000001BC6F840E0001BD6F3F0E0001BE6F28
:10126000CCC0B9F0CDC0BAF0CEC0BBF043EC0FF0AB
:10127000B9C0CFF0BAC0D0F0BBC0D1F0CFC01EF023
:10128000D0C01FF0D1C020F0AC0E1B6E2C0E1C6E17
:10129000460E1D6E50EC13F01BC02AF01CC02BF044
:1012A0001DC02CF0E3EC11F02AC0D2F02BC0D3F01B
:1012B00046D0000E896E000E8B6E0001D251F8EC04
:1012C00016F00001D251F8EC16F00001D251F8EC02
:1012D00016F00001D251F8EC16F00001D251F8ECF2
:1012E00016F00001D251F8EC16F00001D251F8ECE2
:1012F00016F00001D251F8EC16F089688B680001F5
:10130000D251F8EC16F00001D251F8EC16F00001C1
:10131000D251F8EC16F00001D251F8EC16F00001B1
:10132000D251F8EC16F00001D251F8EC16F00001A1
:10133000D251F8EC16F00001D251F8EC16F00B0E79
:101340004F185010D8B405D00C0E4F185010D8A418
:10135000B0D70001CBBF08D00001CB5104E1320E61
:101360000001CA5DD8B09ED00001CBBF9BD0000168
:10137000CB5105E1060E0001CA5DD8A093D0000E46
:101380000001D56F000ED46FCAC017F0CBC018F0A3
:1013900068EC16F017C0CCF018C0CDF019C0CEF034
:1013A0004C0E0001BC6F770E0001BD6F3F0E0001B7
:1013B000BE6FCCC0B9F0CDC0BAF0CEC0BBF043EC2C
:1013C0000FF0B9C0CFF0BAC0D0F0BBC0D1F0CFC0E1
:1013D0001EF0D0C01FF0D1C020F0960E1B6E860EFE
:1013E0001C6E440E1D6E50EC13F01BC02AF01CC086
:1013F0002BF01DC02CF0E3EC11F02AC0D4F02BC070
:10140000D5F046D0000E896E000E8B6E0001D451CF
:1014100000EC17F00001D45100EC17F00001D4519A
:1014200000EC17F00001D45100EC17F00001D4518A
:1014300000EC17F00001D45100EC17F00001D4517A
:1014400000EC17F00001D45100EC17F089688B68AC
:101450000001D45100EC17F00001D45100EC17F05A
:101460000001D45100EC17F00001D45100EC17F04A
:101470000001D45100EC17F00001D45100EC17F03A
:101480000001D45100EC17F00001D45100EC17F02A
:101490000B0E4F185010D8B405D00C0E4F1850102A
:1014A000D8A4B0D70001CBBF08D00001CB5104E1D4
:1014B000060E0001CA5DD8B01200000E0001D76F01
:1014C000000ED66FCAC017F0CBC018F068EC16F04B
:1014D00017C01EF018C01FF019C020F09F0E1B6E21
:1014E000F90E1C6E420E1D6E50EC13F01BC02AF05C
:1014F0001CC02BF01DC02CF0E3EC11F02AC0D6F07C
:101500002BC0D7F046D0000E896E000E8B6E000106
:10151000D651F0EC16F00001D651F0EC16F00001B7
:10152000D651F0EC16F00001D651F0EC16F00001A7
:10153000D651F0EC16F00001D651F0EC16F0000197
:10154000D651F0EC16F00001D651F0EC16F0896897
:101550008B680001D651F0EC16F00001D651F0EC8A
:1015600016F00001D651F0EC16F00001D651F0EC67
:1015700016F00001D651F0EC16F00001D651F0EC57
:1015800016F00001D651F0EC16F00001D651F0EC47
:1015900016F00B0E4F185010D8B412000C0E4F1846
:1015A0005010D8B41200AFD70001CBBF6DD00001EE
:1015B000CB5105E1140E0001CA5DD8A065D0000E24
:1015C0000001CF6F000ECE6FCAC017F0CBC018F06D
:1015D00068EC16F017C0D0F018C0D1F019C0D2F0E6
:1015E0000A0E0001BC6FB70E0001BD6FBF0E0001F7
:1015F000BE6FD0C0B9F0D1C0BAF0D2C0BBF043ECDE
:101600000FF0B9C0D3F0BAC0D4F0BBC0D5F0D30E40
:101610001E6E0E0E1F6E460E206ED3C01BF0D4C081
:101620001CF0D5C01DF05DEC12F01BC02AF01CC0F0
:101630002BF01DC02CF0E3EC11F02AC0CEF02BC033
:10164000CFF018D0000E0001D76F000ED66F00014A
:10165000D7BF04D00001D705D8B00CD0D6C089FFC1
:10166000D6C08BFF0001CE5108EC17F00001D64B1D
:10167000D72BEDD70B0E4F185010D8B405D00C0E49
:101680004F185010D8A4DED70001CBBF08D00001FE
:10169000CB5104E1140E0001CA5DD8B094D0000112
:1016A000CBBF91D00001CB5105E1020E0001CA5D14
:1016B000D8A089D0000E0001DD6F000EDC6FCAC01B
:1016C00017F0CBC018F068EC16F017C0D0F018C0B7
:1016D000D1F019C0D2F0660E0001BC6F960E000169
:1016E000BD6FBF0E0001BE6FD0C0B9F0D1C0BAF05F
:1016F000D2C0BBF043EC0FF0B9C0D3F0BAC0D4F005
:10170000BBC0D5F0C00E1E6E820E1F6E430E206E43
:10171000D3C01BF0D4C01CF0D5C01DF05DEC12F09E
:101720001BC02AF01CC02BF01DC02CF0E3EC11F004
:101730002AC0DCF02BC0DDF03CD0000E0001D96FD8
:10174000000ED86F0001D9BF04D00001D905D8B070
:1017500030D0D8C089FFD8C08BFF0001DC5108EC25
:1017600017F00001DC5108EC17F00001DC5108EC27
:1017700017F00001DC5108EC17F00001DC5108EC17
:1017800017F00001DC5108EC17F00001DC5108EC07
:1017900017F00001DC5108EC17F00001DC5108ECF7
:1017A00017F00001DC5108EC17F00001D84BD92BE1
:1017B000C9D70B0E4F185010D8B405D00C0E4F18C7
:1017C0005010D8A4BAD7000E0001CB6F010ECA6F1B
:1017D000000E0001CD6F000ECC6FCAC017F0CBC059
:1017E00018F068EC16F017C0D0F018C0D1F019C08E
:1017F000D2F0660E0001BC6F960E0001BD6FBF0EE9
:101800000001BE6FD0C0B9F0D1C0BAF0D2C0BBF0F9
:1018100043EC0FF0B9C0D3F0BAC0D4F0BBC0D5F0E0
:10182000C00E1E6E820E1F6E430E206ED3C01BF0C4
:10183000D4C01CF0D5C01DF05DEC12F01BC02AF026
:101840001CC02BF01DC02CF0E3EC11F02AC0CCF032
:101850002BC0CDF02CD0000E0001DB6F000EDA6F34
:101860000001DBBF04D00001DB05D8B020D0DAC016
:1018700089FFDAC08BFF4B0EF8EC16F04B0EF8EC3C
:1018800016F04B0EF8EC16F04B0EF8EC16F04B0E73
:10189000F8EC16F04B0EF8EC16F04B0EF8EC16F0D8
:1018A0004B0EF8EC16F00001DA4BDB2BD9D70B0E00
:1018B0004F185010D8B412000C0E4F185010D8B456
:1018C0001200C9D70001B0510001B1110001B211DD
:1018D000D8A40AD0000E0001B06F800E0001B16FD5
:1018E0003F0E0001B26F1200720E0F6E310E106EBD
:1018F000440E116EB0C012F0B1C013F0B2C014F0BB
:10190000CBEC14F0D8B00ED0000E486E220E476E0D
:10191000FF0E0001B06F7F0E0001B16F7F0E00015E
:10192000B26F1200B0C00FF0B1C010F0B2C011F031
:10193000490E126E3A0E136EC40E146ECBEC14F0F8
:10194000D8B00ED0000E486E220E476E000E000179
:10195000B06F000E0001B16F000E0001B26F1200F7
:101960000001B2AF02D0010E01D0000E0001B86F2D
:101970000001B8510001D8B40ED0B0C00FF0B1C012
:1019800010F0B2C011F0BFEC16F00FC0B0F010C0F4
:10199000B1F011C0B2F0B0C01BF0B1C01CF0B2C0C9
:1019A0001DF0AA0E1E6EB80E1F6E3F0E206E5DEC6F
:1019B00012F01BC0B0F01CC0B1F01DC0B2F0B0C03E
:1019C000A8F0B1C0A9F0B2C0AAF0D7EC12F0A8C03C
:1019D000B3F0A9C0B4F0AAC0B5F0B3C02AF0B4C047
:1019E0002BF0B5C02CF0E3EC11F02AC0B6F02BC000
:1019F000B7F0B0C036F0B1C037F0B2C038F0B6C002
:101A000017F0B7C018F068EC16F017C039F018C01E
:101A10003AF019C03BF010EC16F036C0B0F037C009
:101A2000B1F038C0B2F0B0C036F0B1C037F0B2C0DB
:101A300038F0010E396E080E3A6E000E3C6E090E3B
:101A40003B6EC3EC13F036C0A8F037C0A9F038C025
:101A5000AAF0B6C0ABF0B7C0ACF059EC11F0A8C01A
:101A6000B0F0A9C0B1F0AAC0B2F00001B8510001B5
:101A7000D8B42BD00001B02913E17F0E0001B119B9
:101A80000FE17F0E0001B219D8A40AD0000E0001A8
:101A9000B06F000E0001B16F000E0001B26F1200B6
:101AA000000E1B6E800E1C6E3F0E1D6EB0C01EF031
:101AB000B1C01FF0B2C020F050EC13F01BC0B0F06A
:101AC0001CC0B1F01DC0B2F01200B0C0B0F0B1C087
:101AD000B1F0B2C0B2F012000DEC17F0000E136EB0
:101AE000010E126E000E156E010E146E4CEC16F007
:101AF0007E0E126E080E136E84EC16F0000E136E3E
:101B0000010E126E000E156E020E146E4CEC16F0E5
:101B1000BB0E126E080E136E84EC16F0000E136EE0
:101B2000070E126E000E156E020E146E4CEC16F0BF
:101B300050BE06D05050FCE10A0E4F5CD8B0F8D72A
:101B40004FC043F050C044F0A6B2FED7010EA96EBC
:101B500043C0A8FFD890F2BED880F29EA684550E4E
:101B6000A76EAA0EA76EA682A694D8B0F28E435096
:101B7000300FE1EC16F0000E506E4F6850BE06D0EC
:101B80005050FCE10B0E4F5CD8B0F8D70A0E4F183E
:101B90005010D8B4C3D74FC045F050C046F0A6B2DD
:101BA000FED7020EA96E45C0A8FFD890F2BED8801D
:101BB000F29EA684550EA76EAA0EA76EA682A694C4
:101BC000D8B0F28E4550300FE1EC16F0000E506E9A
:101BD0004F6850BE06D05050FCE10B0E4F5CD8B0A1
:101BE000F8D70A0E4F185010D8A40BD0000E136E61
:101BF000080E126E000E156E020E146E4CEC16F0EE
:101C0000BAD74FC04BF050C04CF0A6B2FED7030E6F
:101C1000A96E4BC0A8FFD890F2BED880F29EA684D1
:101C2000550EA76EAA0EA76EA682A694D8B0F28E05
:101C30004B50300FE1EC16F00F0E4F185010D8B487
:101C400005D00A0E4F185010D8A4F6D70A0E4F1818
:101C50005010D8A40BD0000E136E090E126E000E99
:101C6000156E020E146E4CEC16F0B0D745C00FF096
:101C700046C010F0000E126E0A0E116EACEC16F09B
:101C80000FC019F010C01AF043C00FF044C010F09C
:101C9000000E126E640E116EACEC16F00F50192689
:101CA00010501A224B5019244D6E4C501A204E6E73
:101CB000A6B2FED7040EA96E4DC0A8FFD890F2BE02
:101CC000D880F29EA684550EA76EAA0EA76EA68295
:101CD000A694D8A01200F28E12002CC030F0316A07
:101CE000326A2B34303601E331803050356E2FC0EC
:101CF00030F0316A326A2E34303601E331803050B0
:101D0000346E3550D8B40BD03450355CD8B00ED0CA
:101D1000355000083424306E180E306407D02DC0C2
:101D20002AF02EC02BF02FC02CF012003450D8B463
:101D30000BD03550345CD8B00ED034500008352468
:101D4000306E180E306407D02AC02AF02BC02BF05A
:101D50002CC02CF01200060E336E2CBE338E2FBE1C
:101D6000338C2B8EFF0E2A16FF0E2B16000E2C1610
:101D70002E8EFF0E2D16FF0E2E16000E2F1634502F
:101D8000355CD8B01BD0D8902D362E362F36340681
:101D900035503418D8B40DD0330633C030F0070EA8
:101DA0003016D8B406D0EFD7D8902C322B322A3246
:101DB000352A34503518D8B41FD0F6D73550345C96
:101DC000D8B01AD0D8902A362B362C363506355056
:101DD0003418D8B40DD0330633C030F0070E3016A7
:101DE000D8B406D0EFD7D8902F322E322D32342AE5
:101DF00034503518D8A4F7D733AE0CD0FF0E2A1ABA
:101E0000FF0E2B1AFF0E2C1A010E2A26000E2B2273
:101E1000000E2C2233AC0CD0FF0E2D1AFF0E2E1A02
:101E2000FF0E2F1A010E2D26000E2E22000E2F223D
:101E3000000E336E2A502D262B502E222C502F228E
:101E40002FAE0ED0FF0E2D1AFF0E2E1AFF0E2F1AD8
:101E5000010E2D26000E2E22000E2F22010E336EB3
:101E60002DC00FF02EC010F02FC011F035C012F0B1
:101E700033C013F02CEC14F00FC02AF010C02BF07C
:101E800011C02CF01200000E0001C56F0001B95105
:101E90000001BA110001BB11D8A41ED0000E0F6EB4
:101EA000000E106E000E116EBCC012F0BDC013F01B
:101EB000BEC014F0CBEC14F0D8A004D0000E486ED5
:101EC000210E476E000E0001B96F000E0001BA6FBF
:101ED000000E0001BB6F12000001BC510001BD11DA
:101EE0000001BE11D8A40AD0000E0001B96F800E07
:101EF0000001BA6F3F0E0001BB6F12000001BBAFC3
:101F000048D0BCC02AF0BDC02BF0BEC02CF0E3EC22
:101F100011F02AC0C6F02BC0C7F02CC0C8F02DC0ED
:101F2000C9F0C6C017F0C7C018F0C8C019F0C9C0C2
:101F30001AF091EC15F00001BC51171809E10001ED
:101F4000BD51181805E10001BE511918D8B40ED0C2
:101F5000000E486E210E476E000E0001B96F000E94
:101F60000001BA6F000E0001BB6F12000001C651E4
:101F7000010B0001C56FB9C00FF0BAC010F0BBC0B3
:101F800011F0BFEC16F00FC0B9F010C0BAF011C0DC
:101F9000BBF0B9C0A8F0BAC0A9F0BBC0AAF0C1ECB0
:101FA00010F0A8C0BFF0A9C0C0F0AAC0C1F0BFC067
:101FB0001BF0C0C01CF0C1C01DF0BCC01EF0BDC0F5
:101FC0001FF0BEC020F05DEC12F01BC0C2F01CC0C0
:101FD000C3F01DC0C4F0C2C0B0F0C3C0B1F0C4C0F3
:101FE000B2F062EC0CF0B0C0B9F0B1C0BAF0B2C05F
:101FF000BBF00001C5510001D8B40FD0B9C00FF03B
:10200000BAC010F0BBC011F0BFEC16F00FC0B9F0B1
:1020100010C0BAF011C0BBF01200B9C0B9F0BAC01C
:10202000BAF0BBC0BBF012000600E9CF03F0EACF64
:1020300004F0E1CF05F0E2CF06F0D9CF07F0DACF18
:1020400008F0F3CF09F0F4CF0AF0F6CF0BF0F7CF9A
:102050000CF0F8CF0DF0F5CF0EF0F2B0F2A66FD085
:10206000F00E8118D8B468D0FE0E816E81B804D00D
:10207000000E506E010E4F6E81BA04D0000E506EED
:10208000020E4F6E81BC04D0000E506E030E4F6ED8
:1020900081BE04D0000E506E0B0E4F6EFD0E816E91
:1020A00081B804D0000E506E040E4F6E81BA04D079
:1020B000000E506E050E4F6E81BC04D0000E506EA7
:1020C000060E4F6E81BE04D0000E506E0C0E4F6E89
:1020D000FB0E816E81B804D0000E506E070E4F6E5D
:1020E00081BA04D0000E506E080E4F6E81BC04D031
:1020F000000E506E090E4F6E81BE04D0000E506E61
:102100000D0E4F6EF70E816E81B804D0000E506E2A
:102110000F0E4F6E81BA04D0000E506E000E4F6E3F
:1021200081BC04D0000E506E0A0E4F6E81BE04D0EA
:10213000000E506E0E0E4F6EF00E8A6EF290000E74
:10214000A06E000EA16E0EC0F5FF0DC0F8FF0CC012
:10215000F7FF0BC0F6FF0AC0F4FF09C0F3FF08C089
:10216000DAFF07C0D9FF06C0E2FF05C0E1FF04C0E7
:10217000EAFF03C0E9FF02C0FBFF01C0FAFF519272
:1021800011000001AAAF0ED0000E486E210E476E5E
:10219000000E0001A86F000E0001A96F000E0001E3
:1021A000AA6F12000001A8510001A9110001AA1193
:1021B000D8A40ED0000E486E220E476E000E00010D
:1021C000A86F000E0001A96F000E0001AA6F120097
:1021D000000E1E6E000E1F6E400E206EAB0E126EB5
:1021E000000E136EA8C00FF0A9C010F0AAC011F025
:1021F00083EC14F00FC01BF010C01CF011C01DF0D8
:102200005DEC12F01BC02AF01CC02BF01DC02CF09E
:10221000000E2D6E800E2E6EBF0E2F6E6DEC0EF02A
:102220002AC0A8F02BC0A9F02CC0AAF00001AB076F
:10223000D8A0AC07A8C036F0A9C037F0AAC038F0C3
:102240001F0E396E080E3A6E000E3C6E080E3B6E85
:10225000C3EC13F036C0A8F037C0A9F038C0AAF01C
:10226000720E1E6E310E1F6E3F0E206EABC017F049
:10227000ACC018F068EC16F017C01BF018C01CF0CA
:1022800019C01DF05DEC12F01BC02AF01CC02BF031
:102290001DC02CF0A8C02DF0A9C02EF0AAC02FF0B0
:1022A0006DEC0EF02AC0A8F02BC0A9F02CC0AAF04B
:1022B00012000001A8510001A9110001AA11D8A41F
:1022C0000AD0000E0001A86F000E0001A96F000ED9
:1022D0000001AA6F12000001AA517F0B0001AD6F2F
:1022E000AE6BD8900001AD37AE370001AD510001A3
:1022F000AB270001AE510001AC230001A9AF04D00F
:102300000001AD6BAD2B02D00001AD6B0001AD51F2
:102310000001AB27000EAC230001ACAF0ED0000EC5
:10232000486E220E476E000E0001A86F000E0001DD
:10233000A96F000E0001AA6F12000001ACBF1BD0F4
:102340000001AC05D8A017D0000E486E220E476ED3
:102350000001AAAF08D0FF0E0001A86F7F0E000198
:10236000A96FFF0EE7D7FF0E0001A86F7F0E0001D7
:10237000A96F7F0EDFD70001AC35AC310001AE6F25
:102380000001AB310001AD6F0001AA510001AD1990
:10239000800BAD190001AA6FABC0ADF0010E0001BA
:1023A000AD170001AD33AD330001A9510001AD19E6
:1023B0007F0BAD190001A96FA8C0A8F0A9C0A9F0B2
:1023C000AAC0AAF012002CC02EF02F6A306A2B345B
:1023D0002E3601E32F802E50386E3850D8A409D005
:1023E000000E2A6E000E2B6E000E2C6E000E2D6E4F
:1023F0001200170E2E6E2AC02FF02BC030F02CC00A
:1024000031F02E28326E04D0D890313230322F3253
:10241000322EFAD72F50336E2B8EFF0E2A16FF0E58
:102420002B16000E2C162A50346E2B50356E2C5065
:10243000366E376A8E0E385E38AE16D03850800A47
:102440008F0FD8B009D0000E2A6E000E2B6E000E32
:102450002C6E000E2D6E1200D89037323632353287
:102460003432383EF9D715D0170E38640FD0000E2D
:102470002A6E000E2B6E000E2C6E000E2D6E1200BA
:10248000D890343635363636373638063850D8A4F4
:10249000F7D73350D8B408D0371E361E351E346CEB
:1024A000000E35223622372234C02AF035C02BF0F8
:1024B00036C02CF037C02DF012001DC021F0226A6A
:1024C000236A1C34213601E322802150246E2450DB
:1024D000D8A407D0000E1B6E000E1C6E000E1D6EE1
:1024E000120020C021F0226A236A1F34213601E342
:1024F00022802150296E2950D8A407D0000E1B6ECF
:10250000000E1C6E000E1D6E120029507B0F24263B
:102510001DC029F02050291A800E29161C8E1F8EEE
:10252000FF0E1E16FF0E1F16000E2016000E256E43
:10253000000E266E000E276E070E286E1BA006D01A
:102540001E5025261F50262220502722D8901D32AB
:102550001C321B32D8901E361F362036282EEED75E
:10256000090E286E1BA006D01E5025261F502622BD
:1025700020502722D8901D321C321B32D89027328F
:1025800026322532282EEED725C00FF026C010F0B7
:1025900027C011F024C012F029C013F02CEC14F065
:1025A0000FC01BF010C01CF011C01DF01200A8C01D
:1025B0000FF0A9C010F0AAC011F0AE0E126E000EFE
:1025C000136E83EC14F00001AFAF17D00001AAAF77
:1025D0000AD0000E0001A86F800E0001A96FBF0E87
:1025E0000001AA6F1200000E0001A86F000E00018A
:1025F000A96F000E0001AA6F12000001AF5105E1A2
:10260000150E0001AE5DD8A007D0A8C0A8F0A9C0E3
:10261000A9F0AAC0AAF01200A8C02AF0A9C02BF005
:10262000AAC02CF0E3EC11F02AC039F02BC03AF02C
:102630002CC03BF02DC03CF055EC15F039C0ABF090
:102640003AC0ACF03BC0ADF0A8C00FF0A9C010F08C
:10265000AAC011F0ABC012F0ACC013F0ADC014F0C2
:10266000CBEC14F0D8B015D0ABC02AF0ACC02BF036
:10267000ADC02CF0000E2D6E800E2E6EBF0E2F6E94
:102680006DEC0EF02AC0A8F02BC0A9F02CC0AAF067
:102690001200ABC0A8F0ACC0A9F0ADC0AAF0120007
:1026A0001DC021F0226A236A1C34213601E32280F6
:1026B0002150286E2850D8A407D0000E1B6E000EA3
:1026C0001C6E000E1D6E120020C021F0226A236ACB
:1026D0001F34213601E322802150296E2950D8A4CD
:1026E00007D0000E1B6E000E1C6E000E1D6E120039
:1026F000000E256E000E266E000E276E2950890FE3
:10270000285E1DC029F02050291A800E29161C8E23
:10271000FF0E1B16FF0E1C16000E1D161F8EFF0E41
:102720001E16FF0E1F16000E2016180E246ED890CF
:102730002536263627361E501B5C1F501C5820504D
:102740001D58D8A007D01E501B5E1F501C5A205089
:102750001D5A2580D8901B361C361D36242EE7D7EF
:1027600025C00FF026C010F027C011F028C012F0CD
:1027700029C013F02CEC14F00FC01BF010C01CF09B
:1027800011C01DF012003BC00FF03CC010F0000E55
:10279000126E030E116EACEC16F039C03DF03AC06B
:1027A0003EF00F503D2610503E223DC0F6FF3EC089
:1027B000F7FF0900F5CF3FF00900F5CF40F00A0020
:1027C000F5CF41F03ED03FC01EF040C01FF041C0E9
:1027D00020F036C01BF037C01CF038C01DF05DEC97
:1027E00012F01BC02AF01CC02BF01DC02CF0000EF4
:1027F000126E030E116E3B06D8A03C063BC00FF0D4
:102800003CC010F0ACEC16F039C03DF03AC03EF0E0
:102810000F503D2610503E223DC0F6FF3EC0F7FF50
:102820000900F5CF2DF00900F5CF2EF00A00F5CF05
:102830002FF06DEC0EF02AC03FF02BC040F02CC002
:1028400041F03B503C10D8A4BED73FC036F040C04A
:1028500037F041C038F012001250D8B405D00F50F4
:1028600010101110D8A40CD0000E0F6E000E106EB8
:10287000000E116E1200122AD890113210320F324F
:10288000000E0F14146E000E1014156EFE0E1114AF
:10289000166E145015101610D8B40CD0ECD7122A9E
:1028A000010E0F26000E1022000E1122D8901132B8
:1028B00010320F32000E0F14146E000E1014156E2D
:1028C000FF0E1114166E145015101610D8B406D041
:1028D000E6D71206D8900F361036113610BE03D048
:1028E000020E1260F6D712A0109ED890123212502B
:1028F00011121350D8A4118E0FC00FF010C010F099
:1029000011C011F012000F5010101110D8A40FD0E8
:1029100012C0D9FF13C0DAFF000EDE6E000EDD6EAE
:10292000000E0F6E000E106E000E116E1200115090
:102930007F0B146E156AD8901436153612C0D9FF65
:1029400013C0DAFF14C0DEFF15C0DDFF10AE03D0E8
:10295000146A142A01D0146A145012C0D9FF13C08B
:10296000DAFFDE12000EDD1212C0D9FF13C0DAFF4B
:10297000820EDE26FF0EDD22118011821184118667
:102980001188118A119C109E0FC00FF010C010F01A
:1029900011C011F0120011AE16D00FC015F010C00A
:1029A00016F011C017F0151E161E171E152A000E60
:1029B00016221722000E15240F6E000E1620106E20
:1029C000800E1720116E14AE16D012C015F013C071
:1029D00016F014C017F0151E161E171E152A000E2D
:1029E00016221722000E1524126E000E1620136EEA
:1029F000800E1720146E000E0F1A000E101A800E93
:102A0000111A000E121A000E131A800E141A125008
:102A10000F5C1350105814501158D8B002D0D890F1
:102A20001200D8801200000E146E12AE06D0116C87
:102A3000121ED8B0122A010E146E10AE06D00F6C02
:102A4000101ED8B0102A010E141A000E166E000EB9
:102A5000156E11501210D8B41CD0010E136E04D094
:102A6000D89011361236132A12AEFAD7D8901536EE
:102A7000163611500F5C12501058D8A005D01150C6
:102A80000F5E1250105A1580D89012321132132E48
:102A9000EDD71450D8B404D0156C161ED8B0162A31
:102AA00015C00FF016C010F01200000E426E8E0E10
:102AB000416E3CAE11D03C1E3B1E3A1E396C000EDE
:102AC0003A223B223C22010E426E06D0D8903C3284
:102AD0003B323A323932412A000E39143D6E000E33
:102AE0003A143E6E000E3B143F6EFF0E3C14406ED7
:102AF0003D503E103F104010D8A4E8D739C00FF029
:102B00003AC010F03BC011F041C012F042C013F0C7
:102B10002CEC14F00FC039F010C03AF011C03BF0AB
:102B200012008E0E1F6E06D0D8901A32193218324B
:102B300017321F2A000E17141B6E000E18141C6E7D
:102B4000000E19141D6EFF0E1A141E6E1B501C1061
:102B50001D101E10D8A4E8D717C00FF018C010F031
:102B600019C011F01FC012F0000E136E2CEC14F0FF
:102B70000FC017F010C018F011C019F0120000EECD
:102B800043F00A0EEE6AE806FDE1D80EF66E2B0E53
:102B9000F76E000EF86E00EE60F010EE48F00900DF
:102BA000F5CFEEFFE550E150FAE1220EF66E2E0E63
:102BB000F76E000EF86E00EE4DF010EE04F0090016
:102BC000F5CFEEFFE550E150FAE151905192000E41
:102BD000F86E000171EF04F07F009300A600B800CA
:102BE000C900D900E800F600FF00FF00FF00F60072
:102BF000E800D900C900B800A60093007F006B0070
:102C000058004600350025001600080000000000AE
:102C100000000800160025003500460058006B0033
:102C200039503A103B10D8B406D0000E391A000EB5
:102C30003A1A800E3B1A36C02AF037C02BF038C043
:102C40002CF039C02DF03AC02EF03BC02FF06DECC7
:102C50000EF02AC036F02BC037F02CC038F012002E
:102C600096929694000E956E8D928D94000E8C6EB9
:102C7000820E126EDE0EE82EFED7122EFCD7380E14
:102C8000D1EC16F00D0ED1EC16F0060ED1EC16F0CC
:102C9000010ED1EC16F0120007D01250C00F02D076
:102CA0001250800F186E10D014C016F015C017F017
:102CB0001750000AD8A4F4D71650010AD8B4F0D798
:102CC000030AD8B4EAD7ECD71850D1EC16F01200AA
:102CD000000E1A6E18AE06D0176C181ED8B0182A3F
:102CE000010E1A6E17C00FF018C010F0116A8E0E88
:102CF000126E1AC013F02CEC14F00FC017F010C0B5
:102D000018F011C019F012000AD012C0F6FF13C05B
:102D1000F7FF0800F550E1EC16F0124A132A12C032
:102D2000F6FF13C0F7FF0800F5500009D8B41200F1
:102D3000ECD78D841A0E0F6EF80EE82EFED70F2EEC
:102D4000FCD700D08D941A0E0F6EF80EE82EFED729
:102D50000F2EFCD700D012000F501102F3CF13F04A
:102D6000F4CF14F00F501202F35014261050110239
:102D7000F350142613C00FF014C010F012000F50BF
:102D800010101110D8B406D0000E0F1A000E101A31
:102D9000800E111A0FC00FF010C010F011C011F00A
:102DA0001200116E8D9211C08CFF99EC16F01A0E64
:102DB000106EF80EE82EFED7102EFCD700D08D82B4
:102DC0001200116E8D8211C08CFF99EC16F01A0E54
:102DD000106EF80EE82EFED7102EFCD700D0120091
:102DE0000F6EFA0E00F0E82EFDD70F2EFAD7120064
:102DF0000F6E030EE82EFED700F00F2EFAD712004A
:102E00000F6E210EE82EFED700F00F2EFAD712001B
:102E10000F6E00F00F2EFDD71200010ED1EC16F050
:062E20001200FF00FF009C
:020000040020DA
:08000000FFFFFFFFFFFFFFFF00
:020000040030CA
:0E00000000081F1EFF8081FF0FC00FE00F40A1
:00000001FF
